MPLINK 5.08, LINKER
Linker Map File - Created Tue Jul 10 18:32:11 2018

                                 Section Info
                  Section       Type    Address   Location Size(Bytes)
                ---------  ---------  ---------  ---------  ---------
                 RES_VECT       code   0x000000    program   0x000004
                   .cinit    romdata   0x000002    program   0x000004
           INTERRUPT_VECT       code   0x000004    program   0x000004
                    WRITE       code   0x000006    program   0x000408
                MAIN_PROG       code   0x00020a    program   0x0000d6
.config_8007_BUILD/DEFAULT/DEBUG/MAIN.O       code   0x008007    program   0x000002
.config_8008_BUILD/DEFAULT/DEBUG/MAIN.O       code   0x008008    program   0x000002
.config_8009_BUILD/DEFAULT/DEBUG/MAIN.O       code   0x008009    program   0x000002
                REGISTERS      udata   0x000120       data   0x00000d
                  BUFFERL      udata   0x0001a0       data   0x000050
                  BUFFERM      udata   0x000220       data   0x000050
                  BUFFERH      udata   0x0002a0       data   0x000014



                              Program Memory Usage 
                               Start         End      
                           ---------   ---------      
                            0x000000    0x000274      
                            0x008007    0x008009      
            632 out of 8200 program addresses used, program memory utilization is 7%



                              Symbols - Sorted by Name
                     Name    Address   Location    Storage File                     
                ---------  ---------  ---------  --------- ---------                
                  INITIAL   0x00020a    program     static C:\Users\904pa\Documents\Git\WS2813-firmware\main.asm
           INTERRUPT_SERV   0x000232    program     static C:\Users\904pa\Documents\Git\WS2813-firmware\main.asm
                     LOOP   0x00025c    program     static C:\Users\904pa\Documents\Git\WS2813-firmware\main.asm
              RENDER_LOOP   0x00024f    program     static C:\Users\904pa\Documents\Git\WS2813-firmware\main.asm
                     SKIP   0x00026e    program     static C:\Users\904pa\Documents\Git\WS2813-firmware\main.asm
                    START   0x000246    program     static C:\Users\904pa\Documents\Git\WS2813-firmware\main.asm
              WRITE_FRAME   0x000006    program     static C:\Users\904pa\Documents\Git\WS2813-firmware\main.asm
                WRITE_LED   0x00000a    program     static C:\Users\904pa\Documents\Git\WS2813-firmware\main.asm
             WS2813_WRITE   0x00000e    program     static C:\Users\904pa\Documents\Git\WS2813-firmware\main.asm
          _MAIN_PROG_0067   0x000271    program     static C:\Users\904pa\Documents\Git\WS2813-firmware\main.asm
              _WRITE_0009   0x00000f    program     static C:\Users\904pa\Documents\Git\WS2813-firmware\main.asm
              _WRITE_0013   0x000019    program     static C:\Users\904pa\Documents\Git\WS2813-firmware\main.asm
              _WRITE_001E   0x000024    program     static C:\Users\904pa\Documents\Git\WS2813-firmware\main.asm
              _WRITE_0028   0x00002e    program     static C:\Users\904pa\Documents\Git\WS2813-firmware\main.asm
              _WRITE_0033   0x000039    program     static C:\Users\904pa\Documents\Git\WS2813-firmware\main.asm
              _WRITE_003D   0x000043    program     static C:\Users\904pa\Documents\Git\WS2813-firmware\main.asm
              _WRITE_0048   0x00004e    program     static C:\Users\904pa\Documents\Git\WS2813-firmware\main.asm
              _WRITE_0052   0x000058    program     static C:\Users\904pa\Documents\Git\WS2813-firmware\main.asm
              _WRITE_005D   0x000063    program     static C:\Users\904pa\Documents\Git\WS2813-firmware\main.asm
              _WRITE_0067   0x00006d    program     static C:\Users\904pa\Documents\Git\WS2813-firmware\main.asm
              _WRITE_0072   0x000078    program     static C:\Users\904pa\Documents\Git\WS2813-firmware\main.asm
              _WRITE_007C   0x000082    program     static C:\Users\904pa\Documents\Git\WS2813-firmware\main.asm
              _WRITE_0087   0x00008d    program     static C:\Users\904pa\Documents\Git\WS2813-firmware\main.asm
              _WRITE_0091   0x000097    program     static C:\Users\904pa\Documents\Git\WS2813-firmware\main.asm
              _WRITE_009C   0x0000a2    program     static C:\Users\904pa\Documents\Git\WS2813-firmware\main.asm
              _WRITE_00A6   0x0000ac    program     static C:\Users\904pa\Documents\Git\WS2813-firmware\main.asm
              _WRITE_00B2   0x0000b8    program     static C:\Users\904pa\Documents\Git\WS2813-firmware\main.asm
              _WRITE_00BC   0x0000c2    program     static C:\Users\904pa\Documents\Git\WS2813-firmware\main.asm
              _WRITE_00C7   0x0000cd    program     static C:\Users\904pa\Documents\Git\WS2813-firmware\main.asm
              _WRITE_00D1   0x0000d7    program     static C:\Users\904pa\Documents\Git\WS2813-firmware\main.asm
              _WRITE_00DC   0x0000e2    program     static C:\Users\904pa\Documents\Git\WS2813-firmware\main.asm
              _WRITE_00E6   0x0000ec    program     static C:\Users\904pa\Documents\Git\WS2813-firmware\main.asm
              _WRITE_00F1   0x0000f7    program     static C:\Users\904pa\Documents\Git\WS2813-firmware\main.asm
              _WRITE_00FB   0x000101    program     static C:\Users\904pa\Documents\Git\WS2813-firmware\main.asm
              _WRITE_0106   0x00010c    program     static C:\Users\904pa\Documents\Git\WS2813-firmware\main.asm
              _WRITE_0110   0x000116    program     static C:\Users\904pa\Documents\Git\WS2813-firmware\main.asm
              _WRITE_011B   0x000121    program     static C:\Users\904pa\Documents\Git\WS2813-firmware\main.asm
              _WRITE_0125   0x00012b    program     static C:\Users\904pa\Documents\Git\WS2813-firmware\main.asm
              _WRITE_0130   0x000136    program     static C:\Users\904pa\Documents\Git\WS2813-firmware\main.asm
              _WRITE_013A   0x000140    program     static C:\Users\904pa\Documents\Git\WS2813-firmware\main.asm
              _WRITE_0145   0x00014b    program     static C:\Users\904pa\Documents\Git\WS2813-firmware\main.asm
              _WRITE_014F   0x000155    program     static C:\Users\904pa\Documents\Git\WS2813-firmware\main.asm
              _WRITE_015B   0x000161    program     static C:\Users\904pa\Documents\Git\WS2813-firmware\main.asm
              _WRITE_0165   0x00016b    program     static C:\Users\904pa\Documents\Git\WS2813-firmware\main.asm
              _WRITE_0170   0x000176    program     static C:\Users\904pa\Documents\Git\WS2813-firmware\main.asm
              _WRITE_017A   0x000180    program     static C:\Users\904pa\Documents\Git\WS2813-firmware\main.asm
              _WRITE_0185   0x00018b    program     static C:\Users\904pa\Documents\Git\WS2813-firmware\main.asm
              _WRITE_018F   0x000195    program     static C:\Users\904pa\Documents\Git\WS2813-firmware\main.asm
              _WRITE_019A   0x0001a0    program     static C:\Users\904pa\Documents\Git\WS2813-firmware\main.asm
              _WRITE_01A4   0x0001aa    program     static C:\Users\904pa\Documents\Git\WS2813-firmware\main.asm
              _WRITE_01AF   0x0001b5    program     static C:\Users\904pa\Documents\Git\WS2813-firmware\main.asm
              _WRITE_01B9   0x0001bf    program     static C:\Users\904pa\Documents\Git\WS2813-firmware\main.asm
              _WRITE_01C4   0x0001ca    program     static C:\Users\904pa\Documents\Git\WS2813-firmware\main.asm
              _WRITE_01CE   0x0001d4    program     static C:\Users\904pa\Documents\Git\WS2813-firmware\main.asm
              _WRITE_01D9   0x0001df    program     static C:\Users\904pa\Documents\Git\WS2813-firmware\main.asm
              _WRITE_01E3   0x0001e9    program     static C:\Users\904pa\Documents\Git\WS2813-firmware\main.asm
              _WRITE_01EE   0x0001f4    program     static C:\Users\904pa\Documents\Git\WS2813-firmware\main.asm
              _WRITE_01F8   0x0001fe    program     static C:\Users\904pa\Documents\Git\WS2813-firmware\main.asm
                  BUFFERH   0x0002a0       data     static C:\Users\904pa\Documents\Git\WS2813-firmware\main.asm
                  BUFFERL   0x0001a0       data     static C:\Users\904pa\Documents\Git\WS2813-firmware\main.asm
                  BUFFERM   0x000220       data     static C:\Users\904pa\Documents\Git\WS2813-firmware\main.asm
               FRAMECOUNT   0x000121       data     static C:\Users\904pa\Documents\Git\WS2813-firmware\main.asm
                LASTCOLOR   0x00012a       data     static C:\Users\904pa\Documents\Git\WS2813-firmware\main.asm
                 LEDCOUNT   0x000120       data     static C:\Users\904pa\Documents\Git\WS2813-firmware\main.asm
               RENDER_CON   0x00012b       data     static C:\Users\904pa\Documents\Git\WS2813-firmware\main.asm
            RENDER_STATUS   0x00012c       data     static C:\Users\904pa\Documents\Git\WS2813-firmware\main.asm
                   WCOLOR   0x000127       data     static C:\Users\904pa\Documents\Git\WS2813-firmware\main.asm
              WRITE_COUNT   0x000122       data     static C:\Users\904pa\Documents\Git\WS2813-firmware\main.asm
             WS2813_RESET   0x000123       data     static C:\Users\904pa\Documents\Git\WS2813-firmware\main.asm
        WS2813_RESET_COPY   0x000125       data     static C:\Users\904pa\Documents\Git\WS2813-firmware\main.asm



                              Symbols - Sorted by Address
                     Name    Address   Location    Storage File                     
                ---------  ---------  ---------  --------- ---------                
              WRITE_FRAME   0x000006    program     static C:\Users\904pa\Documents\Git\WS2813-firmware\main.asm
                WRITE_LED   0x00000a    program     static C:\Users\904pa\Documents\Git\WS2813-firmware\main.asm
             WS2813_WRITE   0x00000e    program     static C:\Users\904pa\Documents\Git\WS2813-firmware\main.asm
              _WRITE_0009   0x00000f    program     static C:\Users\904pa\Documents\Git\WS2813-firmware\main.asm
              _WRITE_0013   0x000019    program     static C:\Users\904pa\Documents\Git\WS2813-firmware\main.asm
              _WRITE_001E   0x000024    program     static C:\Users\904pa\Documents\Git\WS2813-firmware\main.asm
              _WRITE_0028   0x00002e    program     static C:\Users\904pa\Documents\Git\WS2813-firmware\main.asm
              _WRITE_0033   0x000039    program     static C:\Users\904pa\Documents\Git\WS2813-firmware\main.asm
              _WRITE_003D   0x000043    program     static C:\Users\904pa\Documents\Git\WS2813-firmware\main.asm
              _WRITE_0048   0x00004e    program     static C:\Users\904pa\Documents\Git\WS2813-firmware\main.asm
              _WRITE_0052   0x000058    program     static C:\Users\904pa\Documents\Git\WS2813-firmware\main.asm
              _WRITE_005D   0x000063    program     static C:\Users\904pa\Documents\Git\WS2813-firmware\main.asm
              _WRITE_0067   0x00006d    program     static C:\Users\904pa\Documents\Git\WS2813-firmware\main.asm
              _WRITE_0072   0x000078    program     static C:\Users\904pa\Documents\Git\WS2813-firmware\main.asm
              _WRITE_007C   0x000082    program     static C:\Users\904pa\Documents\Git\WS2813-firmware\main.asm
              _WRITE_0087   0x00008d    program     static C:\Users\904pa\Documents\Git\WS2813-firmware\main.asm
              _WRITE_0091   0x000097    program     static C:\Users\904pa\Documents\Git\WS2813-firmware\main.asm
              _WRITE_009C   0x0000a2    program     static C:\Users\904pa\Documents\Git\WS2813-firmware\main.asm
              _WRITE_00A6   0x0000ac    program     static C:\Users\904pa\Documents\Git\WS2813-firmware\main.asm
              _WRITE_00B2   0x0000b8    program     static C:\Users\904pa\Documents\Git\WS2813-firmware\main.asm
              _WRITE_00BC   0x0000c2    program     static C:\Users\904pa\Documents\Git\WS2813-firmware\main.asm
              _WRITE_00C7   0x0000cd    program     static C:\Users\904pa\Documents\Git\WS2813-firmware\main.asm
              _WRITE_00D1   0x0000d7    program     static C:\Users\904pa\Documents\Git\WS2813-firmware\main.asm
              _WRITE_00DC   0x0000e2    program     static C:\Users\904pa\Documents\Git\WS2813-firmware\main.asm
              _WRITE_00E6   0x0000ec    program     static C:\Users\904pa\Documents\Git\WS2813-firmware\main.asm
              _WRITE_00F1   0x0000f7    program     static C:\Users\904pa\Documents\Git\WS2813-firmware\main.asm
              _WRITE_00FB   0x000101    program     static C:\Users\904pa\Documents\Git\WS2813-firmware\main.asm
              _WRITE_0106   0x00010c    program     static C:\Users\904pa\Documents\Git\WS2813-firmware\main.asm
              _WRITE_0110   0x000116    program     static C:\Users\904pa\Documents\Git\WS2813-firmware\main.asm
              _WRITE_011B   0x000121    program     static C:\Users\904pa\Documents\Git\WS2813-firmware\main.asm
              _WRITE_0125   0x00012b    program     static C:\Users\904pa\Documents\Git\WS2813-firmware\main.asm
              _WRITE_0130   0x000136    program     static C:\Users\904pa\Documents\Git\WS2813-firmware\main.asm
              _WRITE_013A   0x000140    program     static C:\Users\904pa\Documents\Git\WS2813-firmware\main.asm
              _WRITE_0145   0x00014b    program     static C:\Users\904pa\Documents\Git\WS2813-firmware\main.asm
              _WRITE_014F   0x000155    program     static C:\Users\904pa\Documents\Git\WS2813-firmware\main.asm
              _WRITE_015B   0x000161    program     static C:\Users\904pa\Documents\Git\WS2813-firmware\main.asm
              _WRITE_0165   0x00016b    program     static C:\Users\904pa\Documents\Git\WS2813-firmware\main.asm
              _WRITE_0170   0x000176    program     static C:\Users\904pa\Documents\Git\WS2813-firmware\main.asm
              _WRITE_017A   0x000180    program     static C:\Users\904pa\Documents\Git\WS2813-firmware\main.asm
              _WRITE_0185   0x00018b    program     static C:\Users\904pa\Documents\Git\WS2813-firmware\main.asm
              _WRITE_018F   0x000195    program     static C:\Users\904pa\Documents\Git\WS2813-firmware\main.asm
              _WRITE_019A   0x0001a0    program     static C:\Users\904pa\Documents\Git\WS2813-firmware\main.asm
              _WRITE_01A4   0x0001aa    program     static C:\Users\904pa\Documents\Git\WS2813-firmware\main.asm
              _WRITE_01AF   0x0001b5    program     static C:\Users\904pa\Documents\Git\WS2813-firmware\main.asm
              _WRITE_01B9   0x0001bf    program     static C:\Users\904pa\Documents\Git\WS2813-firmware\main.asm
              _WRITE_01C4   0x0001ca    program     static C:\Users\904pa\Documents\Git\WS2813-firmware\main.asm
              _WRITE_01CE   0x0001d4    program     static C:\Users\904pa\Documents\Git\WS2813-firmware\main.asm
              _WRITE_01D9   0x0001df    program     static C:\Users\904pa\Documents\Git\WS2813-firmware\main.asm
              _WRITE_01E3   0x0001e9    program     static C:\Users\904pa\Documents\Git\WS2813-firmware\main.asm
              _WRITE_01EE   0x0001f4    program     static C:\Users\904pa\Documents\Git\WS2813-firmware\main.asm
              _WRITE_01F8   0x0001fe    program     static C:\Users\904pa\Documents\Git\WS2813-firmware\main.asm
                  INITIAL   0x00020a    program     static C:\Users\904pa\Documents\Git\WS2813-firmware\main.asm
           INTERRUPT_SERV   0x000232    program     static C:\Users\904pa\Documents\Git\WS2813-firmware\main.asm
                    START   0x000246    program     static C:\Users\904pa\Documents\Git\WS2813-firmware\main.asm
              RENDER_LOOP   0x00024f    program     static C:\Users\904pa\Documents\Git\WS2813-firmware\main.asm
                     LOOP   0x00025c    program     static C:\Users\904pa\Documents\Git\WS2813-firmware\main.asm
                     SKIP   0x00026e    program     static C:\Users\904pa\Documents\Git\WS2813-firmware\main.asm
          _MAIN_PROG_0067   0x000271    program     static C:\Users\904pa\Documents\Git\WS2813-firmware\main.asm
                 LEDCOUNT   0x000120       data     static C:\Users\904pa\Documents\Git\WS2813-firmware\main.asm
               FRAMECOUNT   0x000121       data     static C:\Users\904pa\Documents\Git\WS2813-firmware\main.asm
              WRITE_COUNT   0x000122       data     static C:\Users\904pa\Documents\Git\WS2813-firmware\main.asm
             WS2813_RESET   0x000123       data     static C:\Users\904pa\Documents\Git\WS2813-firmware\main.asm
        WS2813_RESET_COPY   0x000125       data     static C:\Users\904pa\Documents\Git\WS2813-firmware\main.asm
                   WCOLOR   0x000127       data     static C:\Users\904pa\Documents\Git\WS2813-firmware\main.asm
                LASTCOLOR   0x00012a       data     static C:\Users\904pa\Documents\Git\WS2813-firmware\main.asm
               RENDER_CON   0x00012b       data     static C:\Users\904pa\Documents\Git\WS2813-firmware\main.asm
            RENDER_STATUS   0x00012c       data     static C:\Users\904pa\Documents\Git\WS2813-firmware\main.asm
                  BUFFERL   0x0001a0       data     static C:\Users\904pa\Documents\Git\WS2813-firmware\main.asm
                  BUFFERM   0x000220       data     static C:\Users\904pa\Documents\Git\WS2813-firmware\main.asm
                  BUFFERH   0x0002a0       data     static C:\Users\904pa\Documents\Git\WS2813-firmware\main.asm


